:100000000C9434000C9451010C9451010C94510146
:100010000C9451010C9451010C9451010C94510118
:100020000C9451010C9451010C9451010C94510108
:100030000C9451010C9451010C9451010C945101F8
:100040000C9451010C9451010C9451010C945101E8
:100050000C9451010C9451010C9451010C945101D8
:100060000C9451010C94510111241FBECFEFD8E024
:10007000DEBFCDBF0E9440000C944601F894FFCF34
:100080008FEF8AB91BB88BB181608BB92FEF80E7F6
:1000900092E0215080409040E1F700C000008BB119
:1000A0008E7F8BB92FEF80E792E021508040904007
:1000B000E1F700C000008BB182608BB92FEF80E7C1
:1000C00092E0215080409040E1F700C000008BB1E9
:1000D0008D7F8BB92FEF80E792E0215080409040D8
:1000E000E1F700C000008BB184608BB92FEF80E78F
:1000F00092E0215080409040E1F700C000008BB1B9
:100100008B7F8BB92FEF80E792E0215080409040A9
:10011000E1F700C000008BB188608BB92FEF80E75A
:1001200092E0215080409040E1F700C000008BB188
:10013000877F8BB92FEF80E792E02150804090407D
:10014000E1F700C000008BB180618BB92FEF80E731
:1001500092E0215080409040E1F700C000008BB158
:100160008F7E8BB92FEF80E792E021508040904046
:10017000E1F700C000008BB180628BB92FEF80E700
:1001800092E0215080409040E1F700C000008BB128
:100190008F7D8BB92FEF80E792E021508040904017
:1001A000E1F700C000008BB180648BB92FEF80E7CE
:1001B00092E0215080409040E1F700C000008BB1F8
:1001C0008F7B8BB92FEF80E792E0215080409040E9
:1001D000E1F700C000008BB180688BB92FEF80E79A
:1001E00092E0215080409040E1F700C000008BB1C8
:1001F0008F778BB92FEF80E792E0215080409040BD
:10020000E1F700C000008BB181608BB98BB18260D7
:100210008BB98BB184608BB98BB188608BB98BB192
:1002200080618BB98BB180628BB98BB180648BB9E3
:100230008BB180688BB92FEF80E792E0215080402E
:100240009040E1F700C000008BB18E7F8BB98BB17D
:100250008D7F8BB98BB18B7F8BB98BB1877F8BB93E
:100260008BB18F7E8BB98BB18F7D8BB98BB18F7B2F
:100270008BB98BB18F778BB92FEF80E792E021504C
:0C02800080409040E1F700C00000FDCE7F
:10028C00EC010E9456010E945501CE010E945701BB
:06029C00CE010E94530197
:0402A2000C940000B8
:0402A6000E943E0074
:0202AA000895B5
:0202AC000895B3
:0202AE000895B1
:00000001FF
